:020000040800F2
:10000000000001204D580008C1550008CD550008DA
:10001000D3550008D9550008DF550008000000003E
:10002000000000000000000000000000E55500088E
:10003000F155000800000000FD55000809560008B1
:100040009D5800089D5800089D5800089D580008BC
:100050009D5800089D5800089D5800089D580008AC
:100060009D5800089D5800089D5800089D5800089C
:100070009D5800089D5800089D5800089D5800088C
:100080009D5800089D5800089D5800089D5800087C
:100090009D5800089D5800089D5800089D5800086C
:1000A0009D5800089D5800089D5800089D5800085C
:1000B0009D5800089D5800089D5800089D5800084C
:1000C0009D5800089D5800089D5800089D5800083C
:1000D0009D5800089D5800089D5800089D5800082C
:1000E0009D5800089D5800089D5800089D5800081C
:1000F0009D5800089D5800089D5800089D5800080C
:100100009D58000800000000000000009D580008F5
:100110009D5800089D5800089D5800089D580008EB
:100120009D5800089D5800089D5800089D580008DB
:100130009D5800089D5800080000000000000000C5
:100140009D5800089D5800089D58000800000000B8
:10015000000000000000000000000000000000009F
:100160009D5800089D5800089D5800089D5800089B
:100170009D5800089D5800089D5800089D5800088B
:100180009D5800089D580008000000000000000075
:040190009D5800086E
:1001A00010B5054C237833B9044B13B10448AFF3B1
:1001B00000800123237010BD2001002000000000FA
:1001C000E867000808B5034B1BB103490348AFF3C8
:1001D000008008BD0000000024010020E86700083E
:1001E00081F0004102E000BF83F0004330B54FEAE8
:1001F00041044FEA430594EA050F08BF90EA020F55
:100200001FBF54EA000C55EA020C7FEA645C7FEAE7
:10021000655C00F0E2804FEA5454D4EB5555B8BF0A
:100220006D420CDD2C4480EA020281EA030382EA7B
:10023000000083EA010180EA020281EA0303362D0D
:1002400088BF30BD11F0004F4FEA01314FF4801CE0
:100250004CEA113102D0404261EB410113F0004FF2
:100260004FEA03334CEA133302D0524263EB4303A9
:1002700094EA050F00F0A780A4F10104D5F1200E47
:100280000DDB02FA0EFC22FA05F2801841F10001A2
:1002900003FA0EF2801843FA05F359410EE0A5F176
:1002A00020050EF1200E012A03FA0EFC28BF4CF0A7
:1002B000020C43FA05F3C01851EBE37101F000455D
:1002C00007D54FF0000EDCF1000C7EEB00006EEB6A
:1002D0000101B1F5801F1BD3B1F5001F0CD34908F4
:1002E0005FEA30004FEA3C0C04F101044FEA44524B
:1002F00012F5800F80F09A80BCF1004F08BF5FEAD2
:10030000500C50F1000041EB045141EA050130BDB1
:100310005FEA4C0C404141EB010111F4801FA4F154
:100320000104E9D191F0000F04BF01460020B1FAA9
:1003300081F308BF2033A3F10B03B3F120020CDAE1
:100340000C3208DD02F1140CC2F10C0201FA0CF0BF
:1003500021FA02F10CE002F11402D8BFC2F1200C24
:1003600001FA02F120FA0CFCDCBF41EA0C019040DA
:10037000E41AA2BF01EB0451294330BD6FEA040423
:100380001F3C1CDA0C340EDC04F11404C4F120020E
:1003900020FA04F001FA02F340EA030021FA04F320
:1003A00045EA030130BDC4F10C04C4F1200220FA77
:1003B00002F001FA04F340EA0300294630BD21FAB5
:1003C00004F0294630BD94F0000F83F4801306BF7B
:1003D00081F480110134013D4EE77FEA645C18BF6F
:1003E0007FEA655C29D094EA050F08BF90EA020F06
:1003F00005D054EA000C04BF1946104630BD91EAFE
:10040000030F1EBF0021002030BD5FEA545C05D100
:100410004000494128BF41F0004130BD14F580043F
:100420003CBF01F5801130BD01F0004545F0FE41B3
:1004300041F470014FF0000030BD7FEA645C1ABFE8
:10044000194610467FEA655C1CBF0B46024650EA1F
:10045000013406BF52EA033591EA030F41F400214B
:1004600030BD00BF90F0000F04BF0021704730B5D1
:100470004FF4806404F132044FF000054FF00001A6
:1004800050E700BF90F0000F04BF0021704730B567
:100490004FF4806404F1320410F0004548BF40423C
:1004A0004FF000013EE700BF42004FEAE2014FEA91
:1004B00031014FEA02701FBF12F07F4393F07F4F6C
:1004C00081F06051704732F07F4208BF704793F06F
:1004D0007F4F04BF41F40021704730B54FF4607482
:1004E00001F0004521F000411CE700BF50EA010285
:1004F00008BF704730B54FF000050AE050EA01022E
:1005000008BF704730B511F0004502D5404261EB9D
:1005100041014FF4806404F132045FEA915C3FF4DE
:10052000D8AE4FF003025FEADC0C18BF03325FEA7B
:10053000DC0C18BF033202EBDC02C2F1200300FA2C
:1005400003FC20FA02F001FA03FE40EA0E0021FA51
:1005500002F11444BDE600BF70B54FF0FF0C4CF43F
:10056000E06C1CEA11541DBF1CEA135594EA0C0FF1
:1005700095EA0C0F00F0DEF82C4481EA030621EA2C
:100580004C5123EA4C5350EA013518BF52EA033567
:1005900041F4801143F4801338D0A0FB02CE4FF019
:1005A0000005E1FB02E506F00042E0FB03E54FF049
:1005B0000006E1FB03569CF0000F18BF4EF0010E41
:1005C000A4F1FF04B6F5007F64F5407404D25FEA3D
:1005D0004E0E6D4146EB060642EAC62141EA5551F0
:1005E0004FEAC52040EA5E504FEACE2EB4F1FD0C32
:1005F00088BFBCF5E06F1ED8BEF1004F08BF5FEAB0
:10060000500E50F1000041EB045170BD06F0004661
:1006100046EA010140EA020081EA0301B4EB5C040E
:10062000C2BFD4EB0C0541EA045170BD41F4801106
:100630004FF0000E013C00F3AB8014F1360FDEBF2B
:10064000002001F0004170BDC4F10004203C35DA07
:100650000C341BDC04F11404C4F1200500FA05F38A
:1006600020FA04F001FA05F240EA020001F000422B
:1006700021F0004110EBD37021FA04F642EB0601A1
:100680005EEA430E08BF20EAD37070BDC4F10C04CB
:10069000C4F1200500FA04F320FA05F001FA04F28F
:1006A00040EA020001F0004110EBD37041F100017B
:1006B0005EEA430E08BF20EAD37070BDC4F1200586
:1006C00000FA05F24EEA020E20FA04F301FA05F2EE
:1006D00043EA020321FA04F001F0004121FA04F296
:1006E00020EA020000EBD3705EEA430E08BF20EA66
:1006F000D37070BD94F0000F0FD101F000464000A0
:1007000041EB010111F4801F08BF013CF7D041EA21
:10071000060195F0000F18BF704703F00046520025
:1007200043EB030313F4801F08BF013DF7D043EAF6
:100730000603704794EA0C0F0CEA135518BF95EAAC
:100740000C0F0CD050EA410618BF52EA4306D1D133
:1007500081EA030101F000414FF0000070BD50EA52
:10076000410606BF1046194652EA430619D094EADC
:100770000C0F02D150EA013613D195EA0C0F05D1C6
:1007800052EA03361CBF104619460AD181EA03011A
:1007900001F0004141F0FE4141F470014FF00000D2
:1007A00070BD41F0FE4141F4780170BD70B54FF06D
:1007B000FF0C4CF4E06C1CEA11541DBF1CEA1355ED
:1007C00094EA0C0F95EA0C0F00F0A7F8A4EB0504CF
:1007D00081EA030E52EA03354FEA013100F08880C6
:1007E0004FEA03334FF0805545EA131343EA12638F
:1007F0004FEA022245EA111545EA10654FEA002644
:100800000EF000419D4208BF964244F1FD0404F5FC
:10081000407402D25B084FEA3202B61A65EB030558
:100820005B084FEA32024FF480104FF4002CB6EB15
:10083000020E75EB030E22BFB61A754640EA0C0095
:100840005B084FEA3202B6EB020E75EB030E22BFD5
:10085000B61A754640EA5C005B084FEA3202B6EB16
:10086000020E75EB030E22BFB61A754640EA9C00D5
:100870005B084FEA3202B6EB020E75EB030E22BFA5
:10088000B61A754640EADC0055EA060E18D04FEA63
:10089000051545EA16754FEA06164FEAC30343EA03
:1008A00052734FEAC2025FEA1C1CC0D111F4801FD0
:1008B0000BD141EA00014FF000004FF0004CB6E7C9
:1008C00011F4801F04BF01430020B4F1FD0C88BF68
:1008D000BCF5E06F3FF6AFAEB5EB030C04BFB6EB73
:1008E000020C5FEA500C50F1000041EB045170BD66
:1008F0000EF0004E4EEA113114EB5C04C2BFD4EB93
:100900000C0541EA045170BD41F480114FF0000E16
:10091000013C90E645EA060E8DE60CEA135594EA92
:100920000C0F08BF95EA0C0F3FF43BAF94EA0C0F95
:100930000AD150EA01347FF434AF95EA0C0F7FF40A
:1009400025AF104619462CE795EA0C0F06D152EA5E
:1009500003353FF4FDAE1046194622E750EA410642
:1009600018BF52EA43067FF4C5AE50EA41047FF453
:100970000DAF52EA43057FF4EBAE12E74FF0FF3CB8
:1009800006E000BF4FF0010C02E000BF4FF0010C89
:100990004DF804CD4FEA410C7FEA6C5C4FEA430C02
:1009A00018BF7FEA6C5C1BD001B050EA410C0CBF51
:1009B00052EA430C91EA030F02BF90EA020F0020B3
:1009C000704710F1000F91EA030F58BF994208BF1A
:1009D00090422CBFD8176FEAE37040F001007047D7
:1009E0004FEA410C7FEA6C5C02D150EA013C07D12E
:1009F0004FEA430C7FEA6C5CD6D152EA033CD3D079
:100A00005DF8040B704700BF8446104662468C4672
:100A10001946634600E000BF01B5FFF7B7FF0028A5
:100A200048BF10F1000F01BD4DF808EDFFF7F4FFCE
:100A30000CBF012000205DF808FB00BF4DF808ED59
:100A4000FFF7EAFF34BF012000205DF808FB00BF7C
:100A50004DF808EDFFF7E0FF94BF012000205DF89E
:100A600008FB00BF4DF808EDFFF7CEFF94BF012053
:100A700000205DF808FB00BF4DF808EDFFF7C4FF4C
:100A800034BF012000205DF808FB00BF4FEA41029F
:100A900012F5001215D211D56FF47873B3EB6252D0
:100AA00012D94FEAC12343F0004343EA505311F0F7
:100AB000004F23FA02F018BF404270474FF0000089
:100AC000704750EA013005D111F0004008BF6FF0C7
:100AD000004070474FF00000704700BF80F00040BA
:100AE00002E000BF81F0004142001FBF5FEA410306
:100AF00092EA030F7FEA226C7FEA236C6AD04FEA06
:100B00001262D2EB1363C1BFD2184140484041404A
:100B1000B8BF5B42192B88BF704710F0004F40F4FC
:100B2000000020F07F4018BF404211F0004F41F418
:100B3000000121F07F4118BF494292EA030F3FD0E4
:100B4000A2F1010241FA03FC10EB0C00C3F12003F7
:100B500001FA03F100F0004302D5494260EB400086
:100B6000B0F5000F13D3B0F1807F06D340084FEAF1
:100B7000310102F10102FE2A51D2B1F1004F40EBE6
:100B8000C25008BF20F0010040EA0300704749004E
:100B900040EB000010F4000FA2F10102EDD1B0FA19
:100BA00080FCACF1080CB2EB0C0200FA0CF0AABF0E
:100BB00000EBC25052421843BCBFD04018437047AC
:100BC00092F0000F81F4000106BF80F400000132B2
:100BD000013BB5E74FEA41037FEA226C18BF7FEA89
:100BE000236C21D092EA030F04D092F0000F08BFCB
:100BF0000846704790EA010F1CBF0020704712F0B2
:100C00007F4F04D1400028BF40F00040704712F1F0
:100C100000723CBF00F50000704700F0004343F055
:100C2000FE4040F4000070477FEA226216BF08468B
:100C30007FEA23630146420206BF5FEA412390EA4E
:100C4000010F40F4800070474FF0000304E000BF44
:100C500010F0004348BF40425FEA000C08BF7047F5
:100C600043F0964301464FF000001CE050EA0102B9
:100C700008BF70474FF000030AE000BF50EA0102CE
:100C800008BF704711F0004302D5404261EB4101BB
:100C90005FEA010C02BF84460146002043F0B643E0
:100CA00008BFA3F18053A3F50003BCFA8CF2083A05
:100CB000A3EBC25310DB01FA02FC634400FA02FC0E
:100CC000C2F12002BCF1004F20FA02F243EB020015
:100CD00008BF20F00100704702F1200201FA02FC77
:100CE000C2F1200250EA4C0021FA02F243EB02006A
:100CF00008BF20EADC7070474FF0FF0C1CEAD052AE
:100D00001EBF1CEAD15392EA0C0F93EA0C0F6FD06E
:100D10001A4480EA010C400218BF5FEA41211ED04C
:100D20004FF0006343EA501043EA5111A0FB013138
:100D30000CF00040B1F5000F3EBF490041EAD3710D
:100D40005B0040EA010062F17F02FD2A1DD8B3F189
:100D5000004F40EBC25008BF20F00100704790F0F8
:100D6000000F0CF0004C08BF49024CEA502040EA4A
:100D700051207F3AC2BFD2F1FF0340EAC250704710
:100D800040F400004FF00003013A5DDC12F1190F4E
:100D9000DCBF00F000407047C2F10002410021FAC0
:100DA00002F1C2F1200200FA02FC5FEA310040F1D8
:100DB000000053EA4C0308BF20EADC70704792F051
:100DC000000F00F0004C02BF400010F4000F013A89
:100DD000F9D040EA0C0093F0000F01F0004C02BF84
:100DE000490011F4000F013BF9D041EA0C018FE7F3
:100DF0000CEAD15392EA0C0F18BF93EA0C0F0AD0F9
:100E000030F0004C18BF31F0004CD8D180EA01001E
:100E100000F00040704790F0000F17BF90F0004FB7
:100E2000084691F0000F91F0004F14D092EA0C0F99
:100E300001D142020FD193EA0C0F03D14B0218BF2C
:100E4000084608D180EA010000F0004040F0FE4072
:100E500040F40000704740F0FE4040F4400070470E
:100E60004FF0FF0C1CEAD0521EBF1CEAD15392EA8D
:100E70000C0F93EA0C0F69D0A2EB030280EA010C7D
:100E800049024FEA402037D04FF0805343EA111116
:100E900043EA10130CF000408B4238BF5B0042F174
:100EA0007D024FF4000C8B4224BF5B1A40EA0C0019
:100EB000B3EB510F24BFA3EB510340EA5C00B3EB4B
:100EC000910F24BFA3EB910340EA9C00B3EBD10F39
:100ED00024BFA3EBD10340EADC001B0118BF5FEA8B
:100EE0001C1CE0D1FD2A3FF650AF8B4240EBC250B4
:100EF00008BF20F0010070470CF0004C4CEA502075
:100F00007F32C2BFD2F1FF0340EAC250704740F4C3
:100F100000004FF00003013A37E792F0000F00F0B5
:100F2000004C02BF400010F4000F013AF9D040EA33
:100F30000C0093F0000F01F0004C02BF490011F4C7
:100F4000000F013BF9D041EA0C0195E70CEAD153BF
:100F500092EA0C0F08D142027FF47DAF93EA0C0FA6
:100F60007FF470AF084676E793EA0C0F04D14B028A
:100F70003FF44CAF08466EE730F0004C18BF31F03C
:100F8000004CCAD130F000427FF45CAF31F0004336
:100F90007FF43CAF5FE700BF4FEA4002B2F1FE4F83
:100FA0000FD34FF09E03B3EB12620DD94FEA00232B
:100FB00043F0004310F0004F23FA02F018BF404204
:100FC00070474FF00000704712F1610F01D14202EB
:100FD00005D110F0004008BF6FF0004070474FF09F
:100FE000000070470000000000000000000000004A
:100FF00001F0FF01102A2BDB10F0070F08D010F8CA
:10100000013B013A8B422DD010F0070F42B3F6D1CD
:10101000F0B441EA012141EA014122F007047FF0E6
:1010200000070023F0E80256083C85EA010586EA3D
:10103000010685FA47F5A3FA87F586FA47F6A5FA79
:1010400087F68EB9EED1F0BC01F0FF0102F0070285
:1010500032B110F8013B013A83EA010313B1F8D130
:101060000020704701387047002D06BF3546033811
:10107000073815F0010F07D1013015F4807F02BF4A
:10108000013015F4C03F0130F0BC0138704700BF9B
:101090004FEA410C7FEA6C5C02D150EA013C0AD174
:1010A0004FEA430C7FEA6C5C02D152EA033C02D166
:1010B0004FF0000070474FF00100704780B500AF5F
:1010C000084B1B68074A43F010031360032000F02D
:1010D00029F9002000F008F804F04EFA0023184621
:1010E00080BD00BF0020024080B582B000AF7860B4
:1010F000124B1A68124B1B7819464FF47A73B3FBE4
:10110000F1F3B2FBF3F3184600F033F90346002B7A
:1011100001D001230EE07B680F2B0AD800227968EA
:101120004FF0FF3000F009F9064A7B681360002396
:1011300000E0012318460837BD4680BDB0000020FE
:10114000040000200000002080B400AF054B1B7895
:101150001A46054B1B681344034A136000BFBD4683
:1011600080BC7047040000203C01002080B400AF28
:10117000024B1B681846BD4680BC70473C010020EE
:1011800080B584B000AF7860FFF7F0FFB8607B688F
:10119000FB60FB68B3F1FF3F05D0094B1B781A4693
:1011A000FB681344FB6000BFFFF7E0FF0246BB682B
:1011B000D31AFA689A42F7D800BF1037BD4680BDEF
:1011C0000400002080B485B000AF78607B6803F035
:1011D0000703FB600C4BDB68BB60BA684FF6FF038C
:1011E0001340BB60FB681A02BB68134343F0BF6344
:1011F00043F40033BB60044ABB68D36000BF1437BC
:10120000BD4680BC704700BF00ED00E080B400AF79
:10121000044BDB681B0A03F007031846BD4680BC7D
:10122000704700BF00ED00E080B483B000AF03461C
:101230003960FB7197F90730002B0ADB3B68DAB2A3
:101240000C4997F907301201D2B20B4483F80023FE
:101250000AE03B68DAB20849FB7903F00F03043B6C
:101260001201D2B20B441A7600BF0C37BD4680BCC7
:10127000704700BF00E100E000ED00E080B489B0FD
:1012800000AFF860B9607A60FB6803F00703FB61A8
:10129000FB69C3F10703042B28BF0423BB61FB696F
:1012A0000433062B02D9FB69033B00E000237B617A
:1012B0004FF0FF32BB6902FA03F3DA43BB681A400E
:1012C0007B699A404FF0FF317B6901FA03F3D94300
:1012D0007B680B40134318462437BD4680BC7047DB
:1012E00080B582B000AF78607B68013BB3F1807F4E
:1012F00001D301230FE00A4A7B68013B53600F21B1
:101300004FF0FF30FFF790FF054B00229A60044B2F
:1013100007221A60002318460837BD4680BD00BF6B
:1013200010E000E080B582B000AF78607868FFF729
:1013300049FF00BF0837BD4680BD80B586B000AF0D
:101340000346B9607A60FB7300237B61FFF75EFFA1
:1013500078617A68B9687869FFF790FF024697F973
:101360000F3011461846FFF75FFF00BF1837BD4624
:1013700080BD80B582B000AF78607868FFF7B0FFBD
:10138000034618460837BD4680BD000080B487B0CC
:1013900000AF7860396000237B6160E13B681A68C8
:1013A00001217B6901FA03F31340FB60FB68002B0A
:1013B00000F052813B685B68022B03D03B685B689E
:1013C000122B23D17B69DA087B68083253F822306C
:1013D0003B617B6903F007039B000F2202FA03F3D2
:1013E000DB433A6913403B613B681A697B6903F050
:1013F00007039B0002FA03F33A6913433B617B69DD
:10140000DA087B680832396943F822107B681B6868
:101410003B617B695B00032202FA03F3DB433A6919
:1014200013403B613B685B6803F003027B695B0030
:1014300002FA03F33A6913433B617B683A691A6025
:101440003B685B68012B0BD03B685B68022B07D0C5
:101450003B685B68112B03D03B685B68122B30D173
:101460007B689B683B617B695B00032202FA03F3A4
:10147000DB433A6913403B613B68DA687B695B0098
:1014800002FA03F33A6913433B617B683A699A6055
:101490007B685B683B6101227B6902FA03F3DB43F3
:1014A0003A6913403B613B685B681B0903F001022A
:1014B0007B6902FA03F33A6913433B617B683A693B
:1014C0005A607B68DB683B617B695B00032202FA40
:1014D00003F3DB433A6913403B613B689A687B69DD
:1014E0005B0002FA03F33A6913433B617B683A6994
:1014F000DA603B685B6803F08053002B00F0AC803F
:101500005D4B9B695C4A43F0010393615A4B9B69B5
:1015100003F00103BB60BB68584A7B699B08023338
:1015200052F823303B617B6903F003039B000F22D9
:1015300002FA03F3DB433A6913403B617B68B3F182
:10154000904F25D07B684E4A93421FD07B684D4A0E
:10155000934219D07B684C4A934213D07B684B4A24
:1015600093420DD07B684A4A934207D07B68494A30
:10157000934201D106230CE007230AE0052308E08B
:10158000042306E0032304E0022302E0012300E039
:1015900000237A6902F00302920093403A691343F0
:1015A0003B6136497B699B0802333A6941F8232045
:1015B000394B1B683B61FB68DB433A6913403B6175
:1015C0003B685B6803F48033002B03D03A69FB6807
:1015D00013433B61304A3B6913602F4B5B683B61AF
:1015E000FB68DB433A6913403B613B685B6803F48B
:1015F0000033002B03D03A69FB6813433B61264A52
:101600003B695360244B9B683B61FB68DB433A6951
:1016100013403B613B685B6803F48013002B03D0ED
:101620003A69FB6813433B611B4A3B6993601A4B61
:10163000DB683B61FB68DB433A6913403B613B6815
:101640005B6803F40013002B03D03A69FB68134373
:101650003B61114A3B69D3607B6901337B613B6825
:101660001A687B6922FA03F3002B7FF497AE00BF60
:101670001C37BD4680BC704700100240000001408E
:101680000004004800080048000C00480010004812
:1016900000140048001800480004014080B483B0E2
:1016A00000AF78600B467B8013467B707B78002B05
:1016B00003D07A887B689A6102E07A887B689A62B4
:1016C00000BF0C37BD4680BC704780B582B000AF0C
:1016D00078607B68002B01D1012381E07B6893F85F
:1016E0004130DBB2002B06D17B68002283F840201A
:1016F000786803F0A5F87B68242283F841207B6892
:101700001B681A687B681B6822F001021A607B68FC
:101710005A687B681B6822F070621A617B681B68DC
:101720009A687B681B6822F400429A607B68DB68D9
:10173000012B07D17B689A687B681B6842F40042E2
:101740009A6006E07B689A687B681B6842F40442F2
:101750009A607B68DB68022B04D17B681B684FF4BE
:1017600000625A607B681B685B687A68126843F0A5
:10177000007343F4004353607B681B68DA687B683E
:101780001B6822F40042DA607B681A697B685B6937
:1017900042EA03017B689B691A027B681B680A4363
:1017A000DA607B68D9697B681A6A7B681B680A43C0
:1017B0001A607B681B681A687B681B6842F001022C
:1017C0001A607B6800225A647B68202283F84120DB
:1017D0007B6800221A637B68002283F84220002382
:1017E00018460837BD4680BD80B588B002AFF860A6
:1017F000084611461A4603467B810B463B81134639
:10180000FB80FB6893F84130DBB2202B40F0F9807D
:101810003B6A002B02D0BB8C002B05D1FB684FF438
:1018200000725A640123EDE0FB6893F84030012B0D
:1018300001D10223E6E0FB68012283F84020FFF794
:1018400095FC78617B690093192301224FF40041D4
:10185000F86800F0C2FA0346002B01D00123D1E062
:10186000FB68212283F84120FB68402283F8422054
:10187000FB6800225A64FB683A6A5A62FB68BA8CB9
:101880005A85FB6800225A63F8883A8979897B690E
:101890000193BB6A00930346F86800F0D3F903464E
:1018A000002B05D0FB68002283F840200123A9E02B
:1018B000FB685B8D9BB2FF2B0ED9FB68FF221A855C
:1018C000FB681B8DDAB27989002300934FF0807397
:1018D000F86800F0A5FB0FE0FB685B8D9AB2FB682F
:1018E0001A85FB681B8DDAB27989002300934FF0CB
:1018F0000073F86800F094FB7A69B96AF86800F040
:10190000ACFA0346002B01D001237BE0FB685B6A45
:101910001A78FB681B689A62FB685B6A5A1CFB6852
:101920005A62FB685B8D9BB2013B9AB2FB685A8599
:10193000FB681B8D013B9AB2FB681A85FB685B8DC7
:101940009BB2002B34D0FB681B8D002B30D17B6900
:101950000093BB6A00228021F86800F03EFA03463B
:10196000002B01D001234DE0FB685B8D9BB2FF2B68
:101970000ED9FB68FF221A85FB681B8DDAB27989C4
:10198000002300934FF08073F86800F049FB0FE0EC
:10199000FB685B8D9AB2FB681A85FB681B8DDAB217
:1019A0007989002300934FF00073F86800F038FB4A
:1019B000FB685B8D9BB2002B9ED17A69B96AF8688F
:1019C00000F08BFA0346002B01D001231AE0FB68DC
:1019D0001B682022DA61FB681B685968FB681A687B
:1019E0000A4B0B405360FB68202283F84120FB68C0
:1019F000002283F84220FB68002283F84020002365
:101A000000E0022318461837BD4680BD00E800FEFE
:101A100080B588B002AFF860084611461A46034602
:101A20007B810B463B811346FB80FB6893F841307A
:101A3000DBB2202B40F0FD803B6A002B02D0BB8C38
:101A4000002B05D1FB684FF400725A640123F1E0CA
:101A5000FB6893F84030012B01D10223EAE0FB68D8
:101A6000012283F84020FFF781FB78617B690093B6
:101A7000192301224FF40041F86800F0AEF9034643
:101A8000002B01D00123D5E0FB68222283F84120FE
:101A9000FB68402283F84220FB6800225A64FB68FE
:101AA0003A6A5A62FB68BA8C5A85FB6800225A630C
:101AB000F8883A8979897B690193BB6A0093034668
:101AC000F86800F013F90346002B05D0FB680022EC
:101AD00083F840200123ADE0FB685B8D9BB2FF2BB8
:101AE0000ED9FB68FF221A85FB681B8DDAB2798953
:101AF000524B00934FF08073F86800F091FA0FE0BA
:101B0000FB685B8D9AB2FB681A85FB681B8DDAB2A5
:101B100079894A4B00934FF00073F86800F080FA1F
:101B20007B690093BB6A00220421F86800F055F934
:101B30000346002B01D001237CE0FB681B685A6A36
:101B4000FB685B6AD2B21A70FB685B6A5A1CFB685E
:101B50005A62FB681B8D013B9AB2FB681A85FB68D1
:101B60005B8D9BB2013B9AB2FB685A85FB685B8D2B
:101B70009BB2002B34D0FB681B8D002B30D17B69CE
:101B80000093BB6A00228021F86800F026F9034622
:101B9000002B01D001234DE0FB685B8D9BB2FF2B36
:101BA0000ED9FB68FF221A85FB681B8DDAB2798992
:101BB000002300934FF08073F86800F031FA0FE0D3
:101BC000FB685B8D9AB2FB681A85FB681B8DDAB2E5
:101BD0007989002300934FF00073F86800F020FA31
:101BE000FB685B8D9BB2002B9AD17A69B96AF86861
:101BF00000F073F90346002B01D001231AE0FB68C3
:101C00001B682022DA61FB681B685968FB681A6848
:101C10000B4B0B405360FB68202283F84120FB688C
:101C2000002283F84220FB68002283F84020002332
:101C300000E0022318461837BD4680BD002400800E
:101C400000E800FE80B586B002AFF8600846114695
:101C50001A4603467B810B463B811346FB80FB887B
:101C6000DAB27989204B00934FF08073F86800F066
:101C7000D7F9FA69B969F86800F0EFF80346002B64
:101C800001D001232CE0FB88012B05D13B89DAB27E
:101C9000FB681B689A6215E03B891B0A9BB2DAB2AB
:101CA000FB681B689A62FA69B969F86800F0D5F8B0
:101CB0000346002B01D0012312E03B89DAB2FB6816
:101CC0001B689A62FB690093BB6900228021F86857
:101CD00000F083F80346002B01D0012300E000232D
:101CE00018461037BD4680BD0020008080B586B004
:101CF00002AFF860084611461A4603467B810B4640
:101D00003B811346FB80FB88DAB27989204B009334
:101D10000023F86800F084F9FA69B969F86800F0FE
:101D20009CF80346002B01D001232CE0FB88012BFB
:101D300005D13B89DAB2FB681B689A6215E03B89E2
:101D40001B0A9BB2DAB2FB681B689A62FA69B9692E
:101D5000F86800F082F80346002B01D0012312E05E
:101D60003B89DAB2FB681B689A62FB690093BB6926
:101D700000224021F86800F030F80346002B01D023
:101D8000012300E0002318461037BD4680BD00BF88
:101D90000020008080B483B000AF78607B681B684F
:101DA0009B6903F00203022B03D17B681B680022AE
:101DB0009A627B681B689B6903F00103012B07D0C3
:101DC0007B681B689A697B681B6842F001029A6114
:101DD00000BF0C37BD4680BC704780B584B000AFF3
:101DE000F860B9603B601346FB7122E03B68B3F1D9
:101DF000FF3F1ED0FFF7BAF90246BB69D31A3A6813
:101E00009A4202D33B68002B13D1FB685B6C43F012
:101E10002002FB685A64FB68202283F84120FB689B
:101E2000002283F84220FB68002283F8402001232F
:101E30000FE0FB681B689A69BB681340BA689A4256
:101E40000CBF01230023DBB21A46FB799A42CDD0A6
:101E5000002318461037BD4680BD80B584B000AF62
:101E6000F860B9607A602CE07A68B968F86800F0C8
:101E700071F80346002B01D001232AE0BB68B3F1BF
:101E8000FF3F1ED0FFF772F902467B68D31ABA688B
:101E90009A4202D3BB68002B13D1FB685B6C43F002
:101EA0002002FB685A64FB68202283F84120FB680B
:101EB000002283F84220FB68002283F8402001239F
:101EC00007E0FB681B689B6903F00203022BCBD180
:101ED000002318461037BD4680BD80B584B000AFE2
:101EE000F860B9607A6028E07A68B968F86800F04C
:101EF00031F80346002B01D0012326E0FFF736F925
:101F000002467B68D31ABA689A4202D3BB68002B98
:101F100013D1FB685B6C43F02002FB685A64FB68DA
:101F2000202283F84120FB68002283F84220FB68CE
:101F3000002283F84020012307E0FB681B689B69AF
:101F400003F02003202BCFD1002318461037BD46C5
:101F500080BD000080B584B000AFF860B9607A60E1
:101F6000FB681B689B6903F01003102B51D122E022
:101F7000BB68B3F1FF3F1ED0FFF7F8F802467B685D
:101F8000D31ABA689A4202D3BB68002B13D1FB68FC
:101F90005B6C43F02002FB685A64FB68202283F8E4
:101FA0004120FB68002283F84220FB68002283F86E
:101FB000402001232EE0FB681B689B6903F020038F
:101FC000202BD5D1FB681B681022DA61FB681B68E7
:101FD0002022DA61F868FFF7DDFEFB681B685968AC
:101FE000FB681A680D4B0B405360FB685B6C43F059
:101FF0000402FB685A64FB68202283F84120FB68D6
:10200000002283F84220FB68002283F8402001234D
:1020100000E0002318461037BD4680BD00E800FEF2
:1020200080B485B000AFF8607B600B467B811346BF
:102030007B72FB681B685A68BB695B0D03F48061A7
:102040000C4B0B43DB4302EA03017B89C3F3090218
:102050007B7A1B0403F47F031A437B681A43BB6932
:102060001A43FB681B680A435A6000BF1437BD4619
:1020700080BC7047FF63FF0380B483B000AF78601B
:1020800039607B6893F84130DBB2202B38D17B6814
:1020900093F84030012B01D1022332E07B6801220A
:1020A00083F840207B68242283F841207B681B68EA
:1020B0001A687B681B6822F001021A607B681B6843
:1020C0001A687B681B6822F480521A607B681B6860
:1020D00019687B681B683A680A431A607B681B684A
:1020E0001A687B681B6842F001021A607B68202234
:1020F00083F841207B68002283F84020002300E021
:10210000022318460C37BD4680BC704780B485B0AA
:1021100000AF786039607B6893F84130DBB2202BE8
:1021200039D17B6893F84030012B01D1022333E091
:102130007B68012283F840207B68242283F84120B9
:102140007B681B681A687B681B6822F001021A60B2
:102150007B681B681B68FB60FB6823F47063FB6093
:102160003B681B02FA681343FB607B681B68FA68D4
:102170001A607B681B681A687B681B6842F0010262
:102180001A607B68202283F841207B68002283F854
:102190004020002300E0022318461437BD4680BCCF
:1021A0007047000080B5ADF5027D00AF3B1D1860A3
:1021B0003B1D1B68002B02D1012300F001BF3B1D1A
:1021C0001B681B6803F00103002B00F06081AE4B1D
:1021D0005B6803F00C03042B0CD0AB4B5B6803F083
:1021E0000C03082B59D1A84B5B6803F4C033B3F53B
:1021F000803F52D14FF40033C7F8F431D7F8F431AF
:1022000093FAA3F3C7F8F031D7F8F031B3FA83F3B8
:10221000DBB25B09DBB243F00103DBB2012B02D17D
:10222000994B1B6815E04FF40033C7F8EC31D7F831
:10223000EC3193FAA3F3C7F8E8314FF40033C7F851
:10224000E431D7F8E43193FAA3F3C7F8E0318E4BC9
:102250005B6A4FF40032C7F8DC21D7F8DC2192FA30
:10226000A2F2C7F8D821D7F8D821B2FA82F2D2B2B6
:1022700042F02002D2B202F01F02012101FA02F262
:102280001340002B00F002813B1D1B685B68002B94
:1022900040F0FC80012300F093BE3B1D1B685B688F
:1022A000B3F5803F06D1784B1B68774A43F48033FF
:1022B000136030E03B1D1B685B68002B0CD1724B38
:1022C0001B68714A23F4803313606F4B1B686E4A9E
:1022D00023F4802313601EE03B1D1B685B68B3F58D
:1022E000A02F0CD1684B1B68674A43F4802313600E
:1022F000654B1B68644A43F4803313600BE0624B08
:102300001B68614A23F4803313605F4B1B685E4A8D
:1023100023F4802313603B1D1B685B68002B59D09E
:10232000FEF724FFC7F800020AE0FEF71FFF02468F
:10233000D7F80032D31A642B02D9032300F040BE31
:102340004FF40033C7F8D431D7F8D43193FAA3F35C
:10235000C7F8D031D7F8D031B3FA83F3DBB25B09D9
:10236000DBB243F00103DBB2012B02D1464B1B6809
:1023700015E04FF40033C7F8CC31D7F8CC3193FADD
:10238000A3F3C7F8C8314FF40033C7F8C431D7F806
:10239000C43193FAA3F3C7F8C0313B4B5B6A4FF4E7
:1023A0000032C7F8BC21D7F8BC2192FAA2F2C7F8D4
:1023B000B821D7F8B821B2FA82F2D2B242F02002A4
:1023C000D2B202F01F02012101FA02F21340002BE7
:1023D000ABD05CE0FEF7CAFEC7F800020AE0FEF7E9
:1023E000C5FE0246D7F80032D31A642B02D9032364
:1023F00000F0E6BD4FF40033C7F8B431D7F8B4317C
:1024000093FAA3F3C7F8B031D7F8B031B3FA83F336
:10241000DBB25B09DBB243F00103DBB2012B02D17B
:10242000194B1B6815E04FF40033C7F8AC31D7F8EF
:10243000AC3193FAA3F3C7F8A8314FF40033C7F8CF
:10244000A431D7F8A43193FAA3F3C7F8A0310E4B07
:102450005B6A4FF40032C7F89C21D7F89C2192FAAE
:10246000A2F2C7F89821D7F89821B2FA82F2D2B234
:1024700042F02002D2B202F01F02012101FA02F260
:102480001340002BABD102E00010024000BF3B1D07
:102490001B681B6803F00203002B00F07081D04B17
:1024A0005B6803F00C03002B0CD0CD4B5B6803F092
:1024B0000C03082B6DD1CA4B5B6803F4C033B3F532
:1024C000004F66D10223C7F89431D7F8943193FABC
:1024D000A3F3C7F89031D7F89031B3FA83F3DBB2A6
:1024E0005B09DBB243F00103DBB2012B02D1BC4B31
:1024F0001B6813E00223C7F88C31D7F88C3193FAAC
:10250000A3F3C7F888310223C7F88431D7F88431A0
:1025100093FAA3F3C7F88031B14B5B6A0222C7F884
:102520007C21D7F87C2192FAA2F2C7F87821D7F85B
:102530007821B2FA82F2D2B242F02002D2B202F094
:102540001F02012101FA02F21340002B07D03B1DAC
:102550001B68DB68012B02D0012300F031BDA04BCA
:102560001B6823F0F8023B1D1B681B69F821C7F8A4
:102570007411D7F8741191FAA1F1C7F87011D7F856
:102580007011B1FA81F1C9B28B40954913430B60C8
:10259000F5E03B1D1B68DB68002B00F08580012304
:1025A000C7F86C31D7F86C3193FAA3F3C7F86831E8
:1025B000D7F86831B3FA83F3DBB203F1845303F540
:1025C00084139B001A4601231360FEF7CFFDC7F862
:1025D00000020AE0FEF7CAFD0246D7F80032D31A1D
:1025E000022B02D9032300F0EBBC0223C7F86431AD
:1025F000D7F8643193FAA3F3C7F86031D7F86031A4
:10260000B3FA83F3DBB25B09DBB243F00103DBB265
:10261000012B02D1724B1B6813E00223C7F85C3117
:10262000D7F85C3193FAA3F3C7F858310223C7F8FF
:102630005431D7F8543193FAA3F3C7F85031684BAB
:102640005B6A0222C7F84C21D7F84C2192FAA2F219
:10265000C7F84821D7F84821B2FA82F2D2B242F044
:102660002002D2B202F01F02012101FA02F213404D
:10267000002BAFD05A4B1B6823F0F8023B1D1B68A0
:102680001B69F821C7F84411D7F8441191FAA1F158
:10269000C7F84011D7F84011B1FA81F1C9B28B40A7
:1026A0004F4913430B606AE00123C7F83C31D7F868
:1026B0003C3193FAA3F3C7F83831D7F83831B3FA7D
:1026C00083F3DBB203F1845303F584139B001A46B2
:1026D00000231360FEF74AFDC7F800020AE0FEF788
:1026E00045FD0246D7F80032D31A022B02D9032344
:1026F00000F066BC0223C7F83431D7F8343193FABE
:10270000A3F3C7F83031D7F83031B3FA83F3DBB233
:102710005B09DBB243F00103DBB2012B02D1304B8A
:102720001B6813E00223C7F82C31D7F82C3193FA39
:10273000A3F3C7F828310223C7F82431D7F824318E
:1027400093FAA3F3C7F82031254B5B6A0222C7F83E
:102750001C21D7F81C2192FAA2F2C7F81821D7F849
:102760001821B2FA82F2D2B242F02002D2B202F0C2
:102770001F02012101FA02F21340002BAFD13B1DD1
:102780001B681B6803F00803002B00F0DA803B1D78
:102790001B685B69002B69D00123C7F81431D7F897
:1027A000143193FAA3F3C7F81031D7F81031B3FA04
:1027B00083F3DBB21A460B4B13449B001A460123EA
:1027C0001360FEF7D3FCC7F800020DE0FEF7CEFC65
:1027D0000246D7F80032D31A022B05D90323EFE3C0
:1027E00000100240208190100223C7F80C31D7F866
:1027F0000C3193FAA3F207F584731A6007F582731C
:1028000002221A6007F582731B6893FAA3F207F598
:1028100080731A6007F1FC0302221A6007F1FC03BF
:102820001B6893FAA3F207F1F8031A60A44B5A6AE3
:1028300007F1F4030221196007F1F4031B6893FA0E
:10284000A3F107F1F003196007F1F0031B68B3FA75
:1028500083F3DBB243F06003DBB203F01F0301211B
:1028600001FA03F31340002BB0D06AE007F1EC0348
:1028700001221A6007F1EC031B6893FAA3F207F137
:10288000E8031A6007F1E8031B68B3FA83F3DBB2CD
:102890001A468C4B13449B001A4600231360FEF724
:1028A00065FCC7F8000209E0FEF760FC0246D7F8B5
:1028B0000032D31A022B01D9032381E307F1E40389
:1028C00002221A6007F1E4031B6893FAA3F207F1EE
:1028D000E0031A6007F1DC0302221A6007F1DC034F
:1028E0001B6893FAA3F207F1D8031A6007F1D40327
:1028F00002221A6007F1D4031B6893FAA3F207F1CE
:10290000D0031A606E4B5A6A07F1CC03022119609A
:1029100007F1CC031B6893FAA3F107F1C803196010
:1029200007F1C8031B68B3FA83F3DBB243F060031B
:10293000DBB203F01F03012101FA03F31340002B64
:10294000B2D13B1D1B681B6803F00403002B00F091
:102950005781002387F80732594BDB6903F0805316
:10296000002B12D1564BDB69554A43F08053D3619B
:10297000534BDB6903F0805207F10C031A6007F137
:102980000C031B68012387F807324F4B1B6803F4C5
:102990008073002B1AD14C4B1B684B4A43F4807355
:1029A0001360FEF7E3FBC7F8000209E0FEF7DEFB69
:1029B0000246D7F80032D31A642B01D90323FFE271
:1029C000414B1B6803F48073002BEFD03B1D1B6849
:1029D0009B68012B06D13A4B1B6A394A43F001032D
:1029E00013622FE03B1D1B689B68002B0CD1344BFE
:1029F0001B6A334A23F001031362314B1B6A304ACE
:102A000023F0040313621DE03B1D1B689B68052B2C
:102A10000CD12B4B1B6A2A4A43F004031362284B48
:102A20001B6A274A43F0010313620BE0244B1B6A25
:102A3000234A23F001031362214B1B6A204A23F02F
:102A4000040313623B1D1B689B68002B6AD0FEF7D2
:102A50008DFBC7F800020BE0FEF788FB0246D7F8B3
:102A60000032D31A41F28832934201D90323A7E2FC
:102A700007F1C40302221A6007F1C4031B6893FA2A
:102A8000A3F207F1C0031A6007F1BC0302221A6027
:102A900007F1BC031B6893FAA3F207F1B8031A60AD
:102AA00007F1B8031B68B3FA83F3DBB25B09DBB24F
:102AB00043F00203DBB2022B08D1014B1B6A13E087
:102AC00000100240208190100070004007F1B40314
:102AD00002221A6007F1B4031B6893FAA3F207F10C
:102AE000B0031A60C04B5B6A07F1AC0202211160AF
:102AF00007F1AC02126892FAA2F107F1A802116084
:102B000007F1A8021268B2FA82F2D2B242F0400291
:102B1000D2B202F01F02012101FA02F21340002B8F
:102B20009AD063E0FEF722FBC7F800020BE0FEF745
:102B30001DFB0246D7F80032D31A41F28832934285
:102B400001D903233CE207F1A40302221A6007F132
:102B5000A4031B6893FAA3F207F1A0031A6007F11C
:102B60009C0302221A6007F19C031B6893FAA3F2EC
:102B700007F198031A6007F198031B68B3FA83F30F
:102B8000DBB25B09DBB243F00203DBB2022B02D102
:102B9000954B1B6A0DE007F1940302221A6007F1BE
:102BA00094031B6893FAA3F207F190031A608E4B0B
:102BB0005B6A07F18C020221116007F18C02126836
:102BC00092FAA2F107F18802116007F188021268F7
:102BD000B2FA82F2D2B242F04002D2B202F01F0246
:102BE000012101FA02F21340002BA0D197F807321D
:102BF000012B05D17C4BDB697B4A23F08053D361E9
:102C00003B1D1B689B69002B00F0D981764B5B68EC
:102C100003F00C03082B00F0A6813B1D1B689B6989
:102C2000022B40F01E8107F184034FF080721A607E
:102C300007F184031B6893FAA3F207F180031A607B
:102C400007F180031B68B3FA83F3DBB203F184530B
:102C500003F584139B001A4600231360FEF786FADF
:102C6000C7F8000209E0FEF781FA0246D7F8003201
:102C7000D31A022B01D90323A2E107F17C034FF001
:102C800000721A6007F17C031B6893FAA3F207F144
:102C900078031A6007F178031B68B3FA83F3DBB299
:102CA0005B09DBB243F00103DBB2012B02D14E4BD7
:102CB0001B681BE007F174034FF000721A6007F104
:102CC00074031B6893FAA3F207F170031A6007F10B
:102CD0006C034FF000721A6007F16C031B6893FAE3
:102CE000A3F207F168031A603F4B5B6A07F16402C5
:102CF0004FF00071116007F16402126892FAA2F1BC
:102D000007F16002116007F160021268B2FA82F204
:102D1000D2B242F02002D2B202F01F02012101FA27
:102D200002F21340002B9ED12F4BDB6A23F00F02DF
:102D30003B1D1B685B6A2C491343CB622A4B5B68C3
:102D400023F476123B1D1B68196A3B1D1B68DB6967
:102D50000B43254913434B6007F15C034FF080722E
:102D60001A6007F15C031B6893FAA3F207F158039A
:102D70001A6007F158031B68B3FA83F3DBB203F15F
:102D8000845303F584139B001A4601231360FEF756
:102D9000EDF9C7F8000209E0FEF7E8F90246D7F8B6
:102DA0000032D31A022B01D9032309E107F154039E
:102DB0004FF000721A6007F154031B6893FAA3F2F4
:102DC00007F150031A6007F150031B68B3FA83F34D
:102DD000DBB25B09DBB243F00103DBB2012B05D1AF
:102DE000014B1B681EE000BF0010024007F14C03BE
:102DF0004FF000721A6007F14C031B6893FAA3F2BC
:102E000007F148031A6007F144034FF000721A609B
:102E100007F144031B6893FAA3F207F140031A6019
:102E20006A4B5B6A07F13C024FF00071116007F1D9
:102E30003C02126892FAA2F107F13802116007F120
:102E400038021268B2FA82F2D2B242F02002D2B252
:102E500002F01F02012101FA02F21340002B9BD065
:102E6000ADE007F134034FF080721A6007F13403CC
:102E70001B6893FAA3F207F130031A6007F13003DD
:102E80001B68B3FA83F3DBB203F1845303F58413B5
:102E90009B001A4600231360FEF768F9C7F800028A
:102EA00009E0FEF763F90246D7F80032D31A022B85
:102EB00001D9032384E007F12C034FF000721A605C
:102EC00007F12C031B6893FAA3F207F128031A6099
:102ED00007F128031B68B3FA83F3DBB25B09DBB2AB
:102EE00043F00103DBB2012B02D1384B1B681BE01E
:102EF00007F124034FF000721A6007F124031B68E6
:102F000093FAA3F207F120031A6007F11C034FF0B4
:102F100000721A6007F11C031B6893FAA3F207F111
:102F200018031A60294B5B6A07F114024FF0007115
:102F3000116007F11402126892FAA2F107F110026F
:102F4000116007F110021268B2FA82F2D2B242F0B6
:102F50002002D2B202F01F02012101FA02F2134054
:102F6000002B9ED12BE03B1D1B689B69012B01D1DF
:102F7000012325E0154B5B68C7F8FC31134BDB6A76
:102F8000C7F8F831D7F8FC3103F4C0323B1D1B6899
:102F9000DB699A4211D1D7F8FC3103F470123B1D62
:102FA0001B681B6A9A4208D1D7F8F83103F00F0268
:102FB0003B1D1B685B6A9A4201D0012300E000239D
:102FC000184607F50277BD4680BD00BF00100240DD
:102FD00080B59EB000AF7860396000237B677B6866
:102FE000002B01D1012362E1904B1B6803F0070322
:102FF0003A689A4210D98D4B1B6823F007028B491F
:103000003B6813430B60894B1B6803F007033A6866
:103010009A4201D001234AE17B681B6803F0020356
:10302000002B08D0824B5B6823F0F0027B689B6822
:103030007F4913434B607B681B6803F00103002B3F
:1030400000F0DC807B685B68012B3CD14FF40033DF
:103050003B673B6F93FAA3F3FB66FB6EB3FA83F314
:10306000DBB25B09DBB243F00103DBB2012B02D11F
:103070006F4B1B680FE04FF40033BB66BB6E93FAD7
:10308000A3F37B664FF400333B663B6E93FAA3F3E6
:10309000FB65674B5B6A4FF40032BA65BA6D92FA12
:1030A000A2F27A657A6DB2FA82F2D2B242F02002CE
:1030B000D2B202F01F02012101FA02F21340002BEA
:1030C0007BD10123F3E07B685B68022B3CD14FF09E
:1030D00000733B653B6D93FAA3F3FB64FB6CB3FA9F
:1030E00083F3DBB25B09DBB243F00103DBB2012BFC
:1030F00002D14F4B1B680FE04FF00073BB64BB6CF9
:1031000093FAA3F37B644FF000733B643B6C93FA38
:10311000A3F3FB63464B5B6A4FF00072BA63BA6B72
:1031200092FAA2F27A637A6BB2FA82F2D2B242F0E7
:103130002002D2B202F01F02012101FA02F2134072
:10314000002B3AD10123B2E002233B633B6B93FA9D
:10315000A3F3FB62FB6AB3FA83F3DBB25B09DBB276
:1031600043F00103DBB2012B02D1314B1B680DE0B0
:103170000223BB62BB6A93FAA3F37B6202233B6226
:103180003B6A93FAA3F3FB61294B5B6A0222BA61A3
:10319000BA6992FAA2F27A617A69B2FA82F2D2B28A
:1031A00042F02002D2B202F01F02012101FA02F223
:1031B0001340002B01D1012379E01D4B5B6823F004
:1031C00003027B685B681A4913434B60FDF7CEFF2F
:1031D00078670AE0FDF7CAFF02467B6FD31A41F217
:1031E0008832934201D9032361E0114B5B6803F0FD
:1031F0000C027B685B689B009A42EBD10B4B1B680F
:1032000003F007033A689A4214D2084B1B6823F074
:10321000070206493B6813430B60044B1B6803F02D
:1032200007033A689A4205D0012340E0002002409B
:10323000001002407B681B6803F00403002B08D0D9
:103240001D4B5B6823F4E0627B68DB681A4913431B
:103250004B607B681B6803F00803002B09D0164BFA
:103260005B6823F460527B681B69DB0012491343DF
:103270004B6000F029F801460F4B5B6803F0F00348
:10328000F0223A613A6992FAA2F2FA60FA68B2FA66
:1032900082F2D2B2D340094AD35C21FA03F3084A3E
:1032A0001360084B1B681846FDF71EFF00231846E5
:1032B0007837BD4680BD00BF00100240346800086A
:1032C000B00000200000002080B48BB000AF0023CD
:1032D000FB610023BB6100237B6200237B61002331
:1032E0003B622A4B5B68FB61FB6903F00C03042B18
:1032F00002D0082B03D03FE0254B3B623FE0FB6947
:1033000003F470134FF47012BA60BA6892FAA2F222
:103310007A607A68B2FA82F2D2B2D3401D4AD35CA4
:103320007B611A4BDB6A03F00F030F223A613A69A3
:1033300092FAA2F2FA60FA68B2FA82F2D2B2D340FA
:10334000154AD35CBB61FB6903F48033002B08D0C2
:103350000F4ABB69B2FBF3F27B6902FB03F37B62AA
:1033600007E00B4ABB69B2FBF3F27B6902FB03F394
:103370007B627B6A3B6202E0054B3B6200BF3B6ABB
:1033800018462C37BD4680BC704700BF0010024075
:1033900000127A00146800082468000880B400AFA6
:1033A000024B1B681846BD4680BC7047B000002029
:1033B00080B582B000AFFFF7F1FF01460B4B5B68B1
:1033C00003F4E0634FF4E0627A607A6892FAA2F262
:1033D0003A603A68B2FA82F2D2B2D340044AD35C7D
:1033E00021FA03F318460837BD4680BD001002409D
:1033F0004468000880B582B000AFFFF7CFFF0146F8
:103400000B4B5B6803F460534FF460527A607A6848
:1034100092FAA2F23A603A68B2FA82F2D2B2D34099
:10342000044AD35C21FA03F318460837BD4680BD31
:10343000001002404468000880B592B000AF786088
:1034400000233B640023FB637B681B6803F4803329
:10345000002B00F0D780002387F847304E4BDB6904
:1034600003F08053002B0ED14B4BDB694A4A43F0EB
:103470008053D361484BDB6903F08053BB60BB686A
:10348000012387F84730454B1B6803F48073002BFA
:1034900018D1424B1B68414A43F480731360FDF717
:1034A00065FE386408E0FDF761FE02463B6CD31A06
:1034B000642B01D90323D6E1384B1B6803F48073D6
:1034C000002BF0D0344B1B6A03F44073FB63FB6B9F
:1034D000002B00F084807B685B6803F44073FA6B18
:1034E0009A427CD02C4B1B6A23F44073FB634FF44D
:1034F00080333B633B6B93FAA3F3FB62FB6AB3FA43
:1035000083F3DBB21A46264B13449B001A46012371
:1035100013604FF48033BB63BB6B93FAA3F37B63FD
:103520007B6BB3FA83F3DBB21A461D4B13449B004B
:103530001A4600231360184AFB6B1362FB6B03F0FF
:103540000103002B4BD0FDF711FE38640AE0FDF7B4
:103550000DFE02463B6CD31A41F28832934201D9E8
:10356000032380E10223BB62BB6A93FAA3F37B626D
:1035700002233B623B6A93FAA3F3FB61FB69B3FA54
:1035800083F3DBB25B09DBB243F00203DBB2022B55
:1035900008D1014B1B6A0DE0001002400070004092
:1035A000008190100223BB61BB6993FAA3F37B6196
:1035B000A04B5B6A02223A613A6992FAA2F2FA607F
:1035C000FA68B2FA82F2D2B242F04002D2B202F00B
:1035D0001F02012101FA02F21340002BB7D0954BD4
:1035E0001B6A23F440727B685B68924913430B6249
:1035F00097F84730012B05D18E4BDB698D4A23F0BC
:103600008053D3617B681B6803F00103002B08D053
:10361000884B1B6B23F003027B689B68854913432F
:103620000B637B681B6803F00203002B08D0814BFF
:103630001B6B23F440327B68DB687E4913430B63CA
:103640007B681B6803F00403002B08D0794B1B6BCD
:1036500023F440227B681B69764913430B637B6824
:103660001B6803F02003002B08D0724B1B6B23F068
:1036700010027B68DB696F4913430B637B681B682F
:1036800003F40033002B08D06A4B5B6823F48002FC
:103690007B685B6D674913434B607B681B6803F075
:1036A0004003002B08D0634B1B6B23F020027B6888
:1036B0001B6A604913430B637B681B6803F4802318
:1036C000002B08D05B4B1B6B23F040027B685B6ACE
:1036D000584913430B637B681B6803F00803002BF6
:1036E00008D0544B1B6B23F440127B685B69514933
:1036F00013430B637B681B6803F01003002B08D097
:103700004C4B1B6B23F440027B689B694949134374
:103710000B637B681B6803F40073002B08D0454BD8
:103720005B6823F400027B681B6B424913434B60C8
:103730007B681B6803F08003002B08D03D4BDB6ADD
:1037400023F4F8727B689B6A3A491343CB627B6827
:103750001B6803F48073002B08D0364BDB6A23F41C
:1037600078527B68DB6A33491343CB627B681B6802
:1037700003F48053002B08D02E4B1B6B23F4807274
:103780007B685B6B2B4913430B637B681B6803F4FB
:103790000053002B08D0274B1B6B23F400727B686F
:1037A0001B6C244913430B637B681B6803F4801371
:1037B000002B08D01F4B1B6B23F080727B689B6B28
:1037C0001C4913430B637B681B6803F40013002B35
:1037D00008D0184B1B6B23F000727B68DB6B15491C
:1037E00013430B637B681B6803F48003002B08D032
:1037F000104B1B6B23F480627B685B6C0D49134399
:103800000B637B681B6803F40003002B08D0094B93
:103810001B6B23F400627B689B6C064913430B63AC
:103820007B681B6803F08073002B0CD0014B1B6B73
:1038300002E000BF0010024023F400527B68DB6C02
:103840000B4913430B637B681B6803F00073002B69
:1038500008D0074B1B6B23F400427B681B6D0449A7
:1038600013430B63002318464837BD4680BD00BF95
:103870000010024080B582B000AF78607B68002BFA
:1038800001D101231DE07B6893F83D30DBB2002BB2
:1038900006D17B68002283F83C20786801F046FF5F
:1038A0007B68022283F83D207B681A687B680433BA
:1038B0001946104600F0EEF87B68012283F83D209F
:1038C000002318460837BD4680BD000080B485B08F
:1038D00000AF78607B68022283F83D207B681B681C
:1038E0009A680E4B1340FB60FB68062B0BD0FB68FD
:1038F000B3F5803F07D07B681B681A687B681B683C
:1039000042F001021A607B68012283F83D20002307
:1039100018461437BD4680BC704700BF0700010041
:1039200080B584B000AF786039607B6893F83C3034
:10393000012B01D10223A8E07B68012283F83C20FF
:103940007B68022283F83D207B681B689B68FB60D4
:10395000FB6823F4803323F07703FB60FB6823F4D8
:103960007F43FB607B681B68FA689A603B681B6852
:10397000402B67D0402B0BD8102B73D0102B02D8C4
:10398000002B6FD078E0202B6CD0302B6AD073E006
:10399000702B0DD0702B04D8502B33D0602B41D01E
:1039A0006AE0B3F5805F66D0B3F5005F17D063E0DF
:1039B0007B6818683B6899683B685A683B68DB68B5
:1039C00000F07BF97B681B689B68FB60FB6843F039
:1039D0007703FB607B681B68FA689A604CE07B6841
:1039E00018683B6899683B685A683B68DB6800F078
:1039F00064F97B681B689A687B681B6842F48042A4
:103A00009A6039E07B6818683B6859683B68DB68F6
:103A10001A4600F0DBF87B681B685021184600F05E
:103A200032F929E07B6818683B6859683B68DB68B5
:103A30001A4600F0F9F87B681B686021184600F010
:103A400022F919E07B6818683B6859683B68DB68B5
:103A50001A4600F0BBF87B681B684021184600F04E
:103A600012F909E07B681A683B681B681946104622
:103A700000F009F900E000BF7B68012283F83D20D7
:103A80007B68002283F83C20002318461037BD468F
:103A900080BD000080B485B000AF786039607B687D
:103AA0001B68FB607B68414A934213D07B68B3F18B
:103AB000804F0FD07B683E4A93420BD07B683D4AD3
:103AC000934207D07B683C4A934203D07B683B4AD1
:103AD000934208D1FB6823F07003FB603B685B688E
:103AE000FA681343FB607B68304A93421FD07B68BF
:103AF000B3F1804F1BD07B682D4A934217D07B686F
:103B00002C4A934213D07B682B4A93420FD07B6898
:103B10002B4A93420BD07B682A4A934207D07B689A
:103B2000294A934203D07B68244A934208D1FB6818
:103B300023F44073FB603B68DB68FA681343FB6067
:103B4000FB6823F080023B685B691343FB607B6882
:103B5000FA681A603B689A687B68DA623B681A68A0
:103B60007B689A627B68114A934213D07B68124A41
:103B700093420FD07B68124A93420BD07B68114A64
:103B8000934207D07B68104A934203D07B680B4A6C
:103B9000934203D13B681A697B681A637B680122F0
:103BA0005A6100BF1437BD4680BC7047002C0140ED
:103BB0000004004000080040003401400050014073
:103BC00000400140004401400048014080B487B0FB
:103BD00000AFF860B9607A60FB681B6A7B61FB68C4
:103BE0001B6A23F00102FB681A62FB689B693B6158
:103BF0003B6923F0F0033B617B681B013A69134387
:103C00003B617B6923F00A037B617A69BB681343DC
:103C10007B61FB683A699A61FB687A691A6200BF46
:103C20001C37BD4680BC704780B487B000AFF860D9
:103C3000B9607A60FB681B6A23F01002FB681A62A5
:103C4000FB689B697B61FB681B6A3B617B6923F4B2
:103C500070437B617B681B037A6913437B613B691B
:103C600023F0A0033B61BB681B013A6913433B612E
:103C7000FB687A699A61FB683A691A6200BF1C376F
:103C8000BD4680BC704780B485B000AF78603960B5
:103C90007B689B68FB60FB6823F07003FB603A68FD
:103CA000FB68134343F00703FB607B68FA689A6084
:103CB00000BF1437BD4680BC704780B487B000AFEA
:103CC000F860B9607A603B60FB689B687B617B69E8
:103CD00023F47F437B613B681A027B681A43BB680D
:103CE00013437A6913437B61FB687A699A6000BF6A
:103CF0001C37BD4680BC704780B485B000AF78608B
:103D000039607B6893F83C30012B01D102236DE0D0
:103D10007B68012283F83C207B68022283F83D20E7
:103D20007B681B685B68FB607B681B689B68BB608B
:103D30007B681B68304A934209D07B681B682F4A16
:103D4000934204D07B681B682D4A934208D1FB68DC
:103D500023F47003FB603B685B68FA681343FB6005
:103D6000FB6823F07003FB603B681B68FA68134331
:103D7000FB607B681B68FA685A607B681B681E4A98
:103D800093421DD07B681B68B3F1804F18D07B68CD
:103D90001B681C4A934213D07B681B681A4A9342E3
:103DA0000ED07B681B68154A934209D07B681B685C
:103DB000164A934204D07B681B68114A93420CD187
:103DC000BB6823F08003BB603B689B68BA68134301
:103DD000BB607B681B68BA689A607B68012283F8C5
:103DE0003D207B68002283F83C20002318461437CE
:103DF000BD4680BC704700BF002C0140003401402C
:103E00000050014000040040000800400040014014
:103E100080B582B000AF78607B68002B01D10123B0
:103E200040E07B685B6F002B06D17B68002283F843
:103E30007020786801F0C8FC7B6824225A677B6890
:103E40001B681A687B681B6822F001021A60786898
:103E500000F0C0F80346012B01D1012322E07B686A
:103E60005B6A002B02D0786800F0CEFA7B681B6892
:103E70005A687B681B6822F490425A607B681B6812
:103E80009A687B681B6822F02A029A607B681B682C
:103E90001A687B681B6842F001021A60786800F0BB
:103EA00054FB034618460837BD4680BD80B58AB02E
:103EB00002AFF860B9603B601346FB80FB685B6F44
:103EC000202B40F08180BB68002B02D0FB88002BA8
:103ED00001D1012379E0FB6893F87030012B01D107
:103EE000022372E0FB68012283F87020FB68002245
:103EF000DA67FB6821225A67FDF738F97861FB68B9
:103F0000FA88A3F85020FB68FA88A3F85220FB68CF
:103F10009B68B3F5805F08D1FB681B69002B04D157
:103F20000023FB61BB68BB6103E0BB68FB6100234E
:103F3000BB612DE03B6800937B6900228021F8681B
:103F400000F048FB0346002B01D003233DE0FB6952
:103F5000002B0BD1BB691A88FB681B68C2F30802EF
:103F600092B21A85BB690233BB6108E0FB691A781B
:103F7000FB681B6892B21A85FB690133FB61FB6821
:103F8000B3F852309BB2013B9AB2FB68A3F85220BF
:103F9000FB68B3F852309BB2002BCBD13B68009347
:103FA0007B6900224021F86800F014FB0346002BD7
:103FB00001D0032309E0FB6820225A67FB68002236
:103FC00083F87020002300E0022318462037BD4606
:103FD00080BD000080B588B000AF78600023BB6171
:103FE0000023FB757B689A687B681B691A437B68B2
:103FF0005B691A437B68DB6913433B617B681B6821
:104000001A68AC4B13407A68126839690B43136025
:104010007B681B685B6823F440517B68DA687B68C7
:104020001B680A435A607B689B693B617B681B6A1B
:104030003A6913433B617B681B689B6823F43061DA
:104040007B681B683A690A439A607B681B689A4AD6
:10405000934221D1994B1B6B03F00303032B17D819
:1040600001A252F823F000BF794000088540000803
:104070008B4000087F4000080123FB77B2E0022359
:10408000FB77AFE00423FB77ACE00823FB77A9E0E4
:104090001023FB7700BFA5E07B681B68884A93422A
:1040A00023D1864B1B6B03F44033B3F5803F12D012
:1040B000B3F5803F02D8002B07D012E0B3F5003FE4
:1040C0000CD0B3F5403F03D00BE00023FB7789E031
:1040D0000223FB7786E00423FB7783E00823FB774A
:1040E00080E01023FB7700BF7CE07B681B68754A8B
:1040F000934223D1714B1B6B03F44023B3F5802F04
:1041000012D0B3F5802F02D8002B07D012E0B3F500
:10411000002F0CD0B3F5402F03D00BE00023FB772A
:1041200060E00223FB775DE00423FB775AE008237D
:10413000FB7757E01023FB7700BF53E07B681B68D9
:10414000614A934223D15D4B1B6B03F44013B3F5DB
:10415000801F12D0B3F5801F02D8002B07D012E0C9
:10416000B3F5001F0CD0B3F5401F03D00BE00023C4
:10417000FB7737E00223FB7734E00423FB7731E061
:104180000823FB772EE01023FB7700BF2AE07B6833
:104190001B684E4A934223D1484B1B6B03F44003E8
:1041A000B3F5800F12D0B3F5800F02D8002B07D0E3
:1041B00012E0B3F5000F0CD0B3F5400F03D00BE0C5
:1041C0000023FB770EE00223FB770BE00423FB7751
:1041D00008E00823FB7705E01023FB7700BF01E030
:1041E0001023FB777B68DB69B3F5004F40F09080CC
:1041F000FB7F082B6CD801A252F823F02142000863
:104200004142000861420008D14200087D42000896
:10421000D1420008D1420008D14200089D42000866
:10422000FFF7C6F8F860FB685A007B685B685B08BC
:104230001A447B685B68B2FBF3F39BB2BB614AE054
:10424000FFF7D8F8F860FB685A007B685B685B088A
:104250001A447B685B68B2FBF3F39BB2BB613AE044
:104260007B685B685B0803F5740303F510537A6899
:104270005268B3FBF2F39BB2BB612CE0FFF724F86A
:10428000F860FB685A007B685B685B081A447B68CF
:104290005B68B2FBF3F39BB2BB611CE07B685B68BD
:1042A0005B0803F580327B685B68B2FBF3F39BB27B
:1042B000BB6110E0F369FFEF0038014000100240DD
:1042C0000044004000480040004C004000500040C6
:1042D0000123FB7500BFBB690F2B16D9BB69B3F572
:1042E000803F12D2BB699BB223F00F037B81BB6975
:1042F0005B089BB203F007039AB27B8913437B816F
:104300007B681B687A89DA6072E00123FB756FE0D5
:10431000FB7F082B5BD801A252F823F04143000831
:104320005F4300087D430008CF430008994300081D
:10433000CF430008CF430008CF430008B74300082D
:10434000FFF736F8F8607B685B685A08FB681A4428
:104350007B685B68B2FBF3F39BB2BB613AE0FFF7AB
:1043600049F8F8607B685B685A08FB681A447B6808
:104370005B68B2FBF3F39BB2BB612BE07B685B68CD
:104380005B0803F5F40303F590537A685268B3FBB6
:10439000F2F39BB2BB611DE0FEF796FFF8607B680D
:1043A0005B685A08FB681A447B685B68B2FBF3F3EE
:1043B0009BB2BB610EE07B685B685B0803F5004263
:1043C0007B685B68B2FBF3F39BB2BB6102E0012345
:1043D000FB7500BFBB690F2B08D9BB69B3F5803FE4
:1043E00004D27B681B68BA69DA6001E00123FB75BF
:1043F0007B6800221A667B6800225A66FB7D18469D
:104400002037BD4680BD00BF80B483B000AF786068
:104410007B685B6A03F00103002B0AD07B681B6892
:104420005B6823F400317B689A6A7B681B680A43E7
:104430005A607B685B6A03F00203002B0AD07B683A
:104440001B685B6823F480317B68DA6A7B681B68D1
:104450000A435A607B685B6A03F00403002B0AD0AE
:104460007B681B685B6823F480217B681A6B7B6820
:104470001B680A435A607B685B6A03F00803002BE1
:104480000AD07B681B685B6823F400417B685A6B29
:104490007B681B680A435A607B685B6A03F0100301
:1044A000002B0AD07B681B689B6823F480517B68D3
:1044B0009A6B7B681B680A439A607B685B6A03F0AF
:1044C0002003002B0AD07B681B689B6823F40051F3
:1044D0007B68DA6B7B681B680A439A607B685B6A5F
:1044E00003F04003002B1AD07B681B685B6823F441
:1044F00080117B681A6C7B681B680A435A607B6872
:104500001B6CB3F5801F0AD17B681B685B6823F4C2
:10451000C0017B685A6C7B681B680A435A607B68E1
:104520005B6A03F08003002B0AD07B681B685B6822
:1045300023F400217B689A6C7B681B680A435A60ED
:1045400000BF0C37BD4680BC704780B586B002AF57
:1045500078607B680022DA67FCF708FEF8607B6809
:104560001B681B6803F00803082B0ED16FF07E4315
:104570000093FB6800224FF40011786800F02AF8DD
:104580000346002B01D0032320E07B681B681B68D7
:1045900003F00403042B0ED16FF07E430093FB68FD
:1045A00000224FF48001786800F014F80346002BD5
:1045B00001D003230AE07B6820225A677B6820220F
:1045C0009A677B68002283F8702000231846103712
:1045D000BD4680BD80B584B000AFF860B9603B6077
:1045E0001346FB715DE0BB69B3F1FF3F59D0FCF7A7
:1045F000BDFD02463B68D31ABA699A4202D3BB6931
:10460000002B1BD1FB681B681A68FB681B6822F42F
:10461000D0721A60FB681B689A68FB681B6822F0FE
:1046200001029A60FB6820225A67FB6820229A6781
:10463000FB68002283F87020032342E0FB681B68BC
:104640001B6803F00403002B2BD0FB681B68DB699D
:1046500003F40063B3F5006F23D1FB681B684FF4CC
:1046600000621A62FB681B681A68FB681B6822F408
:10467000D0721A60FB681B689A68FB681B6822F09E
:1046800001029A60FB6820225A67FB6820229A6721
:10469000FB682022DA67FB68002283F8702003237E
:1046A0000FE0FB681B68DA69BB681340BA689A427E
:1046B0000CBF01230023DBB21A46FB799A4292D049
:1046C000002318461037BD4680BD000080B58AB073
:1046D00000AF07F1140300221A605A609A60DA6092
:1046E0001A61344B5B69334A43F400235361314B05
:1046F0005B6903F400233B613B692E4B5B692D4AE8
:1047000043F4800353612B4B5B6903F48003FB602C
:10471000FB68284B5B69274A43F400335361254B00
:104720005B6903F40033BB60BB68224B5B69214AC1
:1047300043F4802353611F4B5B6903F480237B6048
:104740007B68002220214FF09040FCF7A7FF002259
:10475000F0211948FCF7A2FF4FF400537B61174B7F
:10476000BB610023FB6107F1140319461448FCF7F1
:104770000DFE20237B610123BB610023FB6100232D
:104780003B6207F1140319464FF09040FCF7FEFD21
:10479000F0237B610123BB610023FB6100233B62AB
:1047A00007F1140319460448FCF7F0FD00BF283751
:1047B000BD4680BD001002400004004800002110EA
:1047C0000008004880B500AF1B4B1C4A1A601A4B0A
:1047D00040F20B225A60184B00229A60164B0122BD
:1047E000DA60154B00221A61134B00225A61124BFA
:1047F00000229A61104B0022DA610F4B00221A62EC
:104800000D48FCF762FF0346002B01D000F015FBBA
:1048100000210948FDF730FC0346002B01D000F0D1
:104820000CFB00210448FDF771FC0346002B01D06E
:1048300000F003FB00BF80BD400100200054004099
:1048400080B58AB000AF786007F1140300221A60C7
:104850005A609A60DA601A617B681B68174A934253
:1048600028D1174B5B69164A43F480235361144BDC
:104870005B6903F480233B613B694FF440737B61C8
:104880001223BB610123FB6103233B6204237B6290
:1048900007F1140319460B48FCF778FD084BDB6958
:1048A000074A43F40013D361054BDB6903F400139B
:1048B000FB60FB6800BF2837BD4680BD0054004048
:1048C000001002400004004880B483B000AF0346EB
:1048D000FB80084B1B6800225A6200BF054B1B6817
:1048E0005A6AFB889A42F9D300BF0C37BD4680BC98
:1048F000704700BF0802002080B582B000AF78602A
:1049000043F638127B6892FBF3F39BB21846FFF72D
:10491000DBFF00BF0837BD4680BD000080B582B018
:1049200000AF78607B68072B00F2BC8001A252F8D0
:1049300023F000BF554900087F490008A949000835
:10494000D3490008FD490008274A0008514A0008D9
:104950007B4A0008012210215448FCF79FFE0022E8
:1049600020215248FCF79AFE002240214F48FCF7D4
:1049700095FE002280214D48FCF790FE92E0012236
:1049800010214A48FCF78AFE012220214748FCF703
:1049900085FE002240214548FCF780FE0022802150
:1049A0004248FCF77BFE7DE0002210213F48FCF7E7
:1049B00075FE012220213D48FCF770FE00224021B7
:1049C0003A48FCF76BFE002280213848FCF766FE6F
:1049D00068E0002210213548FCF760FE012220210A
:1049E0003248FCF75BFE012240213048FCF756FEBE
:1049F000002280212D48FCF751FE53E000221021B7
:104A00002A48FCF74BFE002220212848FCF746FEEE
:104A1000012240212548FCF741FE00228021234845
:104A2000FCF73CFE3EE0002210212048FCF736FE59
:104A3000002220211D48FCF731FE012240211B48A5
:104A4000FCF72CFE012280211848FCF727FE29E004
:104A5000002210211548FCF721FE002220211348D6
:104A6000FCF71CFE002240211048FCF717FE012233
:104A700080210E48FCF712FE14E0012210210B48A1
:104A8000FCF70CFE002220210848FCF707FE00225C
:104A900040210648FCF702FE012280210348FCF772
:104AA000FDFD00BF00BF0837BD4680BD00040048C3
:104AB00080B58AB000AFF860B9607A601F4BBB6107
:104AC000B969F868FCF7CCF903461846FCF764FAB4
:104AD00003467B6100237B6227E0BB68002B0FD17C
:104AE00007233B6208E0386AFFF718FF7868FFF792
:104AF00003FF3B6A013B3B623B6A002BF3DA11E0A8
:104B0000BB68012B0ED10023FB6108E0F869FFF7B9
:104B100005FF7868FFF7F0FEFB690133FB61FB6975
:104B2000072BF3DD7B6A01337B627A6A7B699A42E9
:104B3000D3DB00BF2837BD4680BD00BF0000343F37
:104B400090B583B000AF4C4B1A684C4B1B68D31A1E
:104B50001846FCF77DF803467B60494B1A68474BC3
:104B60001B68D31A1846FCF773F803463B60434BA7
:104B70001B68434A1360434B00221A60414B1B6879
:104B80001846FCF765F804463F4B1B6879681846E1
:104B9000FCF7B2F8034619462046FBF7A5FF03468B
:104BA0001846FCF7F9F90246364B1A60354B1B687C
:104BB0001846FCF74DF80446344B1B683968184614
:104BC000FCF79AF803461A46314B1B681946104603
:104BD000FCF746F9034619462046FBF785FF0346D6
:104BE0001846FCF7D9F90246264B1A60294B1B6878
:104BF00079681846FCF780F803461A46244B1B6870
:104C000019461046FCF778F803461A46224B1B68F3
:104C100019461046FBF768FF03461A461E4B1A60FA
:104C2000184B1B681846FCF713F802461A4B1B6812
:104C300019461046FBF758FF03461846FCF7ACF937
:104C40000246104B1A600F4B1A68144B1B689A42AD
:104C500007DB0C4B1A68124B1B689342A8BF134624
:104C600001E00E4B1B68074A1360064B1B68184691
:104C70000C37BD4690BD00BFE8010020EC010020CC
:104C8000F8010020F001002010000020F4010020B5
:104C90001800002014000020FC0100200800002063
:104CA0000C00002090B58FB000AFFCF707FA00F0C1
:104CB00061F8FFF70BFDFFF785FD00F055FD00F0F3
:104CC000E1FC2648FEF702FE00BF254800F0BFF8D1
:104CD0000346012BF9D02349214800F019F90A2095
:104CE000FCF74EFA1F4BD3E91434C7E90C34D7E96B
:104CF0000C01FBF7CBFE02461B4B1A60FFF720FFAF
:104D0000F862FB6A002B09DDF86AFBF7A1FF034696
:104D10000D2201211846FFF7CBFE0BE0FB6A5B4238
:104D2000BB62B86AFBF790FF03460D2200211846CC
:104D3000FFF7BEFE0C4B1B681BB21A46FB6A1BB288
:104D4000381D0A4900F0DEFD0346FB84FA8C391D4C
:104D50004FF0FF330648FFF7A9F8BCE70802002030
:104D60004001002090010020EC01002000680008B4
:104D70004802002080B5A6B000AF07F170032822DA
:104D80000021184600F0B6FD07F15C0300221A600E
:104D90005A609A60DA601A613B1D58220021184659
:104DA00000F0A8FD02233B670123FB671023C7F82F
:104DB00080300223C7F888304FF40043C7F88C30A6
:104DC0004FF4E013C7F890300023C7F8943007F190
:104DD00070031846FDF7E6F90346002B01D000F0FA
:104DE0002CF80F23FB6502233B6600237B664FF400
:104DF0008063BB660023FB6607F15C030221184653
:104E0000FEF7E6F80346002B01D000F016F841F259
:104E100022037B6000233B6100233B620023BB63D2
:104E20003B1D1846FEF708FB0346002B01D000F09F
:104E300004F800BF9837BD4680BD80B500AF0022A2
:104E400020214FF09040FCF729FC00BF80BD80B5C9
:104E500088B004AF7860012220214FF09040FCF729
:104E60001DFC642302930123019307F10F030093B8
:104E700001237522D0217868FCF7CAFDFB7B682BE3
:104E80003DD10023BB73642302930123019307F1F7
:104E90000E03009301236B22D0217868FCF7A4FC59
:104EA0000723BB73642302930123019307F10E03CD
:104EB000009301231922D0217868FCF795FC002388
:104EC000BB73642302930123019307F10E03009344
:104ED00001231C22D0217868FCF786FC0023BB73D9
:104EE000642302930123019307F10E03009301232E
:104EF0001B22D0217868FCF777FC002302E0FFF743
:104F00009CFF012318461037BD4680BD00000000FD
:104F10002DE9B04F94B004AF7860396064230293F8
:104F20000E23019307F10803009301233B22D021B4
:104F30007868FCF76DFD3B7A1B021AB27B7A1BB2D4
:104F400013431AB23B681A80BB7A1B021AB2FB7A6F
:104F50001BB213431AB23B685A803B7B1B021AB246
:104F60007B7B1BB213431AB23B689A80BB7B1B024C
:104F70001AB2FB7B1BB21343FB863B7C1B021AB2AB
:104F80007B7C1BB213431AB23B681A84BB7C1B02A6
:104F90001AB2FB7C1BB213431AB23B685A843B7DA6
:104FA0001B021AB27B7D1BB213431AB23B689A8470
:104FB0003B68B3F900301846FBF764FA4FF0000283
:104FC000B74BFBF7F3FB02460B463968C1E90223F6
:104FD0003B68B3F902301846FBF754FA4FF0000271
:104FE000AF4BFBF7E3FB02460B463968C1E90423EC
:104FF0003B68B3F904301846FBF744FAA2A3D3E99F
:105000000023FBF7D3FB02460B463968C1E90623B0
:10501000B7F936301846FBF71BFE0346A149184680
:10502000FBF71EFF0346A0491846FBF75DFD03464C
:105030001A463B681A643B68B3F920301846FBF700
:1050400021FA93A3D3E90023FBF7B0FB02460B46FA
:105050003968C1E90A233B68B3F922301846FBF7E7
:1050600011FA8BA3D3E90023FBF7A0FB02460B4602
:105070003968C1E90C233B68B3F924301846FBF7C3
:1050800001FA83A3D3E90023FBF790FB02460B460A
:105090003968C1E90E23FCF769F80246834B1B68A7
:1050A000D31A1846FBF7DEF94FF00002804BFBF7EE
:1050B0007DFB02460B46C7E90A23FCF757F8024678
:1050C0007A4B1A603B68B3F900301A463B68B3F973
:1050D000003003FB02F23B68B3F9043019463B6829
:1050E000B3F9043003FB01F313441846FBF7CAF984
:1050F00002460B461046194601F0AEF9C7E9080111
:105100004FF000024FF00003D7E90801FBF78CFCD9
:105110000346002B19D13B68B3F902301846FBF760
:10512000B1F9D7E90823FBF741FB02460B461046CD
:10513000194601F001F858A3D3E90023FBF70CFA54
:1051400002460B46C7E90E2305E04FF000024FF080
:105150000003C7E90E233B68B3F900305B421846F1
:10516000FBF790F982468B463B68B3F9043018464A
:10517000FBF788F902460B465046594601F06AF99A
:1051800045A3D3E90023FBF7E7F902460B46C7E93D
:1051900006234FF00002474BD7E90601FBF74EFC10
:1051A0000346002B0AD03B68D3E914014FF00002FC
:1051B000414BFBF761FC0346002B14D14FF000027A
:1051C0003D4BD7E90601FBF757FC0346002B15D0F2
:1051D0003B68D3E914014FF00002364BFBF72EFC7D
:1051E0000346002B0AD03549D7E90623C1E9062337
:1051F0003968D7E90623C1E9142312E03B68D3E9F3
:105200000C23D7E90A01CDE90201CDE90023D7E952
:1052100006232A4800F056F802460B463968C1E9D1
:1052200014233B68D3E91423904623F000494FF040
:105230000002214B40464946FBF71EFC0346002B6B
:1052400008D03B68D3E90A23144683F000453B6845
:10525000C3E90A453B68D3E90C34D7E90A12CDE922
:105260000212CDE90034D7E90E23154800F02AF8E0
:1052700003460C463A68C2E9123400BF4037BD46C7
:10528000BDE8B08FAFF30080000000000029CC40E3
:105290000000000000606040F8C1631ADCA54C40CB
:1052A0000000D0400000AA43B81E124200020020B5
:1052B00000408F40008056C00080564068000020AB
:1052C00020000020B0B592B000AFF860C7E900231D
:1052D000FB68D3E908341A462346D7E91601FAF7E2
:1052E00083FF03460C46C7E91034FB68D3E9064543
:1052F000D7E91023D7E91801FBF72EF902460B4630
:1053000020462946FAF772FF03460C46FA68C2E9BE
:105310000634FB68D3E90A45FB68D3E91001D7E9F5
:105320001823FBF719F902460B4610461946FB688D
:10533000D3E90C23FAF758FF02460B4610461946EC
:10534000FB68D3E90E23FAF74FFF02460B461046DF
:105350001946FB68D3E90023FAF748FF02460B46DB
:1053600010461946D7E91823FBF7F6F802460B4614
:1053700020462946FAF73AFF03460C46FA68C2E986
:105380000A34FB68D3E90C45FB68D3E91001D7E97F
:105390001823FBF7E1F802460B4620462946FAF7A8
:1053A00023FF03460C46FA68C2E90C34FB68D3E9D4
:1053B0000E45FB68D3E91001D7E91823FBF7CCF8B9
:1053C00002460B4620462946FAF70EFF03460C46D6
:1053D000FA68C2E90E34FB68D3E91045FB68D3E9EB
:1053E0000201D7E91823FBF7B7F802460B4620461F
:1053F0002946FAF7FBFE03460C46FA68C2E9103468
:10540000FB68D3E90A01FB68D3E904341A46234652
:10541000FAF7ECFE03460C46C7E90E34FB68D3E905
:105420000A01D7E90E23FBF7C1F903460C46C7E989
:105430000434FB68D3E90E01D7E90E23FBF7B6F974
:1054400003460C46C7E90634FB68D3E906341A461E
:105450002346D7E90001FAF7C7FE03460C46C7E921
:105460000C34FB68D3E90645D7E90401D7E90C23DE
:10547000FBF772F802460B4620462946FAF7B6FEBD
:1054800003460C46FA68C2E90634FB68D3E90845CE
:10549000D7E90601D7E90C23FBF75EF802460B4675
:1054A00020462946FAF7A2FE03460C46FA68C2E9EE
:1054B0000834FB68D3E90A34C7E90A34FB68D3E946
:1054C0000C34C7E90834FB68D3E90A45D7E904017D
:1054D000D7E90A23FBF740F802460B462046294647
:1054E000FAF782FE03460C46FA68C2E90A34FB6802
:1054F000D3E90C45D7E90401D7E90823FBF72CF8D9
:1055000002460B4620462946FAF76EFE03460C4635
:10551000FA68C2E90C34FB68D3E90E45D7E9060105
:10552000D7E90A23FBF718F802460B46204629461E
:10553000FAF75AFE03460C46FA68C2E90E34FB68D5
:10554000D3E91045D7E90601D7E90823FBF704F8AA
:1055500002460B4620462946FAF746FE03460C460D
:10556000FA68C2E91034FB68D3E9063418462146CC
:105570004837BD46B0BD000080B582B000AF0F4BCC
:105580009B690E4A43F0010393610C4B9B6903F046
:1055900001037B607B68094BDB69084A43F0805359
:1055A000D361064BDB6903F080533B603B68072007
:1055B000FBF7B8FE00BF0837BD4680BD00100240B3
:1055C00080B400AF00BFBD4680BC704780B400AF60
:1055D000FEE780B400AFFEE780B400AFFEE780B422
:1055E00000AFFEE780B400AF00BFBD4680BC70478F
:1055F00080B400AF00BFBD4680BC704780B400AF30
:1056000000BFBD4680BC704780B500AFFBF79CFD76
:1056100000BF80BD80B584B000AF7860114B1B68BF
:10562000002B02D10F4B104A1A600E4B1B68FB6017
:105630000C4B1A687B6813446A46934207D900F002
:105640002FF902460C2313604FF0FF3306E0054BA1
:105650001A687B681344034A1360FB6818461037C6
:10566000BD4680BD04020020E002002080B400AFEF
:10567000034B4FF000629A6000BFBD4680BC70478C
:1056800000ED00E080B588B000AF07F11003002204
:105690001A605A609A60DA603B1D00221A605A60F4
:1056A0009A60204B204A1A601E4B47225A601D4BBD
:1056B00000229A601B4B4FF6FE72DA60194B0022F3
:1056C0001A61184B00225A61164B00229A61154844
:1056D000FEF7D0F80346002B01D0FFF7AEFB4FF4E6
:1056E00080533B6107F1100319460E48FEF718F985
:1056F0000346002B01D0FFF7A0FB00237B600023B3
:10570000BB600023FB603B1D19460648FEF7F4FA18
:105710000346002B01D0FFF790FB00BF2037BD46AA
:1057200080BD00BF08020020002C014080B485B07D
:1057300000AF78607B681B68094A93420BD1094B24
:105740009B69084A43F400639361064B9B6903F429
:105750000063FB60FB6800BF1437BD4680BC704728
:10576000002C01400010024080B500AF144B154AD8
:105770001A60134B4FF4E1325A60114B00229A60C9
:105780000F4B0022DA600E4B00221A610C4B0C22E8
:105790005A610B4B00229A61094B0022DA61084BD7
:1057A00000221A62064B00225A620548FEF730FBBF
:1057B0000346002B01D0FFF740FB00BF80BD00BFB8
:1057C000480200200044004080B58AB000AF7860F5
:1057D00007F1140300221A605A609A60DA601A61B5
:1057E0007B681B68174A934228D1174BDB69164A1E
:1057F00043F40033D361144BDB6903F400333B61A2
:105800003B69114B5B69104A43F4003353610E4B03
:105810005B6903F40033FB60FB680C237B610223AC
:10582000BB610023FB6100233B6207237B6207F11E
:10583000140319464FF09040FBF7A8FD00BF28372E
:10584000BD4680BD0044004000100240DFF834D067
:10585000002103E00C4B5B58435004310B480C4BC8
:1058600042189A42F6D30B4A02E0002342F8043B66
:10587000094B9A42F9D3FFF7F9FE00F017F8FFF74A
:1058800011FAFEE700000120C868000800000020AF
:105890001C01002020010020E0020020FEE70000A3
:1058A000014B1868704700BFB400002070B50D4D63
:1058B0000D4C641BA4100026A64209D10B4D0C4CC4
:1058C00000F092FF641BA4100026A64205D170BD13
:1058D00055F8043B98470136EEE755F8043B9847E6
:1058E0000136F2E7C0680008C0680008C068000818
:1058F000C468000802440346934200D1704703F88D
:10590000011BF9E70EB400B59CB01DAB02900690E8
:105910006FF00041094807910491094953F8042B9D
:1059200005910068019302A900F068F8029B00222B
:105930001A701CB05DF804EB03B07047B40000208F
:105940000802FFFF2DE9F0478E689E4282460C4612
:105950009146984638D8B1F80CC01CF4906F31D0FD
:1059600062692568096902EB42026F1A02EBD27282
:10597000013355103B449D4238BF1D461CF4806FD7
:1059800030D0294600F032FB064650B90C23CAF845
:105990000030A38943F04003A3814FF0FF30BDE8FE
:1059A000F0873A46216900F0ABFAA38923F49063AB
:1059B00043F08003A381266165613E44ED1B2660B0
:1059C000A5604646464500D94646324649462068C7
:1059D00000F0A4FAA3689B1BA36023681E44266002
:1059E0000020DCE72A4600F05BFB06460028E2D1F7
:1059F0002169504600F0ACFAC8E700002DE9F04FED
:105A00001E468B891B069DB007460D4614460ED5D3
:105A10000B6963B9402100F0E9FA2860286120B9D8
:105A20000C233B604FF0FF30C9E040236B61002343
:105A3000099320238DF82930DFF89C9103963023B9
:105A40008DF82A304FF0010A23461E4613F8012B29
:105A50000AB1252AF9D1B6EB040B0BD05B462246DE
:105A600029463846FFF76EFF013000F0A380099BFE
:105A70005B4409933378002B00F09C8000234FF0A7
:105A8000FF32CDE905230136049307938DF8533097
:105A90001A933446052214F8011B4F48FBF7A8FA65
:105AA000049BC0B9D90644BF20228DF853201A07A1
:105AB00044BF2B228DF8532032782A2A13D0079A1C
:105AC000344600200A26214611F8013B303B092BC1
:105AD0004BD970B914E0A0EB09000AFA00F01843A2
